:020000040800F2
:10000000E0060020B95500086103000863030008FA
:10001000670300086B0300086F030008000000007E
:100020000000000000000000000000007303000852
:10003000750300080000000077030008790300083A
:10004000D3550008D3550008D3550008D3550008F0
:10005000D3550008D3550008D3550008D3550008E0
:10006000D3550008D3550008D3550008D3550008D0
:10007000D3550008D3550008D3550008D3550008C0
:10008000D3550008D3550008D3550008D3550008B0
:10009000D3550008D3550008D3550008D3550008A0
:1000A000D3550008D3550008D3550008D355000890
:1000B000D3550008D3550008D3550008D355000880
:1000C000D3550008D3550008D3550008D355000870
:1000D000D3550008E3020008D3550008D3550008A3
:1000E000D3550008D3550008D3550008D355000850
:1000F000D3550008D3550008D3550008D355000840
:10010000D3550008D3550008D3550008D35500082F
:10011000D3550008D3550008D3550008D35500081F
:10012000D3550008D3550008D3550008D35500080F
:1001300000F002F800F03FF80AA090E8000C8244BA
:100140008344AAF10107DA4501D100F034F8AFF297
:10015000090EBAE80F0013F0010F18BFFB1A43F0A5
:1001600001031847387D0000587D0000103A24BF75
:1001700078C878C1FAD8520724BF30C830C144BF0C
:1001800004680C607047000000230024002500264E
:10019000103A28BF78C1FBD8520728BF30C148BFEA
:1001A0000B607047782906F05B80002070471FB510
:1001B0001FBD10B510BD06F00BF91146FFF7F7FF94
:1001C00000F008F806F029F903B4FFF7F2FF03BCCA
:1001D00005F092F91CB505F025F94FF4A06005F083
:1001E0008FFF4FF4E13005F096F901F0EAF905F0E0
:1001F000A1F875E0444803784448B0F90020444829
:10020000B0F900104348B0F9000000F0B1FA42A084
:1002100018211423C822CDE900101E21282005F042
:1002200055F841A018211423C822CDE9001050210F
:100230001E2005F04BF840A018211423C822CDE958
:1002400000108221184605F041F8002018210423EF
:10025000CDE900103B48A0210268142004F0C8FF3B
:1002600039A018211423C822CDE9001011461846E0
:1002700005F02CF8002018210423CDE900103548A2
:10028000E6210268142004F0B3FF2E480068B0F5A0
:10029000A07F06DD01242B480088A0F5A07086B25F
:1002A00005E0002427480068C0F5A07086B2294800
:1002B0000068F02805DD002526480088F03887B260
:1002C00005E0012523480068C0F1F00087B23B46F5
:1002D0002A463146204605F050F80D2005F0DFF89B
:1002E00088E710B540F225511B4805F0C5FE48B11E
:1002F00040F22551184805F0E9FE184A1549114801
:1003000000F048F910BD00000600002004000020A5
:1003100002000020000000204D45313834204D619E
:1003200068616F666569000043656E746572205090
:100330006F736974696F6E005820526F74617469CD
:100340006F6E3A00080000205920526F7461746982
:100350006F6E3A000C0000200038014010000020B1
:10036000704700BFFEE700BFFEE700BFFEE700BF2B
:10037000FEE7704770477047704700000CB50020DB
:10038000019000906C48006840F480306A49086031
:1003900000BF6948006800F4003000900198401CDC
:1003A0000190009818B90198B0F5A06FF1D162489A
:1003B000006800F4003010B10120009001E000203E
:1003C00000900098012843D15C48006840F010007C
:1003D0005A4908600846006820F003000860084693
:1003E000006840F002000860534840685249486085
:1003F0000846406848600846406840F480604860AD
:100400000846406820F47C1048600846406840F484
:10041000E81048600846006840F08070086000BF3F
:100420004548006800F000700028F9D04248406854
:1004300020F00300404948600846406840F0020050
:10044000486000BF3C48406800F00C000828F9D123
:100450000CBD10B5FFF792FF10BD10B5364800680F
:1004600040F00100344908600846406834490840BB
:100470003149486008460068324908402E49086002
:100480000846006820F4802008600846406820F490
:10049000FE0048604FF41F008860FFF7DAFF4FF05E
:1004A00000602949086010BD10B50021002000221D
:1004B000214B5B6803F00C0121B1042906D0082907
:1004C00028D107E0214B224C236027E01F4B204C12
:1004D000236023E0184B5B6803F47010164B5B68D5
:1004E00003F48032022303EB904022B9194B4343BB
:1004F000174C23600DE0104B5B6803F4003323B10D
:10050000144B4343124C236003E0104B4343104C05
:10051000236003E00D4B0E4C236000BF00BF064B71
:100520005B68C3F303130C4CE15C094B1B68CB40C5
:10053000074C236010BD0000001002400020024064
:100540000000FFF8FFFFF6FE08ED00E000127A0061
:100550001400002000093D001800002030B50246BC
:100560000B46002010E012F8014B6040002109E02A
:1005700000F001041CB18C2484EA600000E040100B
:100580004C1CE1B20829F3DB1C1EA3F10105ABB240
:10059000E9D130BD2DE9F04105460E46174600244D
:1005A0009A4805F0E9FCC4B299480078112818D19E
:1005B000AA2C13D19748007855280ED100209449D1
:1005C00008709548007895490870934840784870BD
:1005D00000209349087093490870ADE08D4804707D
:1005E000AAE08F48007830B101280FD002282AD025
:1005F00003287DD14CE08948847080788A4908803E
:1006000087480078401C8649087094E083498748F1
:10061000B0F90000C01C0C5484480088401C00B293
:10062000824908800846B0F900007F49B1F90010FE
:10063000884207DB00207D49088079480078401C0B
:100640007749087077E07848B0F90000C01C73491A
:100650000C5475480088C01C81B27048FFF77EFFBB
:10066000704908707048B0F90000C01C6B49085C04
:100670006C490978884205D06DA005F0B1FD0020D5
:10068000BDE8F08166480078401C6549087052E07A
:100690006F48008830B96E480088401C00B26C4931
:1006A000088046E06A480088012842D10020684955
:1006B00008801BE059496648B0F90000C01C095C7D
:1006C0006448634AB2F90020815454496048B0F943
:1006D0000000401D085C60495D4AB2F90020885462
:1006E0005B480088401C00B259490880584800E027
:1006F00020E0B0F900000228DCDB5648B0F9000029
:1007000028605548B0F9000030604448C07938701E
:100710000020434908703F49087011203C49087087
:1007200000204049087040490880404908804849F5
:10073000088000E000BF00BF0020A1E710E000BF7C
:10074000324A128802F08002002AF9D002782F4B38
:100750001B1D1A80401C414A1268521C3F4B1A60F4
:100760003E4A12688A42EADB00223C4B1A6070471C
:100770002DE9FF4306460F4690469946002000901B
:100780000190029003900025354806803548078087
:100790003548A0F80080002404E01F48005D0DF8F3
:1007A0000400641C022CF8DB07258DF8025000249D
:1007B0000FE02B48015DE01C0DF800102948015D99
:1007C000601D0DF800102848015DE01D0DF80010B7
:1007D000641C022CEDDBA81C0DF80090E81C81B213
:1007E0006846FFF7BBFEE91C0DF801001F480178C1
:1007F000281D0DF800101D484178681D0DF80010E7
:100800000D216846FFF79AFFBDE8FF8300380140DD
:100810003900002038000020B06600086000002089
:1008200033000020320000203A0000203400002075
:1008300052656365697665642064617461206368EC
:1008400065636B2073756D206572726F7221000095
:10085000360000202E000020300000203C00002048
:10086000280000202A0000202C000020B26600088A
:10087000F74908807047F649891C0880704708B519
:10088000F348801C00880090BDF8000008BDF04AC5
:100890001080921C1180704710B504462046FFF767
:1008A000E7FF052004F0D7FDFFF7E9FF10BDE94899
:1008B0000089E74908807047E549891C088070472E
:1008C00030B5014601F01F04C1F34513CA0AE50221
:1008D00005EB43151544A8B230BD00BF011EA0F1C1
:1008E0000102D0B2FAD1704710B503460C46D94880
:1008F000808849F24131884205D0D648808845F247
:100900001031884214D1D3494889FFF7B1FF18123A
:10091000FFF7B1FFD8B2FFF7AEFFCE498889FFF7E6
:10092000A7FF2012FFF7A7FFE0B2FFF7A4FFABE09D
:10093000C848808846F6040188421DD1C5488079A0
:10094000012804D1C3480088401EC01A83B2C1499F
:100950004889FFF78DFF1812FFF78DFFD8B2FFF718
:100960008AFFBC498889FFF783FF2012FFF783FFC6
:10097000E0B2FFF780FF87E0B648808841F6631158
:10098000884247D1B3488079A8B9B2480088401E50
:10099000C01A83B2AF494889FFF76AFF0020FFF70A
:1009A0006AFF0020FFF767FF1812FFF764FFD8B255
:1009B000FFF761FF16E0A7494889FFF759FF1812B2
:1009C000FFF759FFD8B2FFF756FFA2490988491E21
:1009D000C1F30F20FFF74FFF9E490978491EC8B2A7
:1009E000FFF749FF9B498889FFF742FF2012FFF775
:1009F00042FFE0B2FFF73FFF96494988491EC1F325
:100A00000F20FFF738FF93498978491EC8B2FFF7D6
:100A100032FF39E08F48808845F21051884220D15A
:100A20008C494889FFF724FF1812FFF724FF8949F2
:100A30004989491C88B2FFF71BFFD8B2FFF71BFF9B
:100A400084498889FFF714FF2012FFF714FF8149BA
:100A50008989491C88B2FFF70BFFE0B2FFF70BFF53
:100A600012E07C488079012804D17A480088401E31
:100A7000C01A83B2774948891946FFF708FF7549BC
:100A800088892146FFF703FF10BD2DE9F041054697
:100A90000E4600240027A0466E480088A84203DDC9
:100AA0006C484088B04202DC0020BDE8F08131464D
:100AB0002846FFF719FF6748808849F2413188428C
:100AC00011D06448808846F6040188420BD0614802
:100AD000808845F21031884205D05E48808841F612
:100AE0006311884203D12E20FFF7C2FE0DE0594862
:100AF000808845F21051884204D14FF43850FFF7F6
:100B0000B7FE02E02220FFF7B3FE5248808849F288
:100B10002031884202D10220FFF7DFFEFFF7AFFE4F
:100B200004464C48808841F66311884201D1204632
:100B3000BBE70220FFF7D1FEFFF7A1FE04464548C0
:100B4000808849F2413188420BD04248808845F282
:100B50001031884205D03F48808845F210518842C4
:100B60000AD10220FFF7B9FEFFF789FE8046E7B2FF
:100B70004FF6FF7000EA07273648808849F2253192
:100B8000884216D03348808844F23551884210D0CC
:100B900030488088091F88420BD02E4880884BF24D
:100BA0000551884205D02B4880884CF20551884277
:100BB00001D1204679E72748808849F241318842AF
:100BC0000BD02448808845F21031884205D0214856
:100BD000808845F21051884207D1E012C002B91254
:100BE00040EA411040EAE8205FE72046FFF768FE50
:100BF0005BE700B51748808849F24131884211D03F
:100C00001448808846F6040188420BD01148808839
:100C100045F21031884205D00E48808841F66311B4
:100C2000884203D12920FFF723FE0FE0094880887E
:100C300045F21051884204D14FF42450FFF718FEBA
:100C400004E040F273110720FFF721FE00BD000011
:100C5000FE07006C7000002000B5FD48808849F256
:100C60004131884211D0FA48808846F60401884212
:100C70000BD0F748808845F21031884205D0F448FF
:100C8000808841F66311884203D12820FFF7F0FDE8
:100C90000EE0EF48808845F21051884204D14FF4AD
:100CA0002050FFF7E5FD03E000210720FFF7EFFDEF
:100CB00000BD70B5044600230026E5488079012870
:100CC0000BD1E348808846F60401884205D0E0480D
:100CD000808841F66311884208D1DD488079F0B9F7
:100CE000DB48808841F66311884218D1082C15D260
:100CF000DFE804F00406080A0C0E101206240DE0CA
:100D000007240BE0042409E0052407E0012405E0A2
:100D1000002403E0032401E0022400BF00BFCC480C
:100D2000808849F24131884217D0C948808846F608
:100D30000401884211D0C648808845F210318842AB
:100D40000BD0C348808845F21051884205D0C04876
:100D5000808841F6631188427ED1082C1CD2DFE8DE
:100D600004F00406090C0F12151800BF14E043F03C
:100D7000800311E043F040030EE043F0C0030BE0BA
:100D800043F0200308E043F0600305E043F0A003D4
:100D900002E043F0E00300BF00BFAD48808845F2A9
:100DA0001051884202D14FF4585600E03626A84828
:100DB000808845F2103188420DD0A548808845F2E0
:100DC0001051884207D0A248808841F663118842BA
:100DD00001D043F008039E48808846F6040188420B
:100DE00001D143F0020319463046FFF750FD984801
:100DF000808841F6631188421DD003F0200068B15D
:100E00009348008892494988884214DA90480588B6
:100E100040888F490880084645800CE08C4800884F
:100E20008B494988884206DD894805884088884979
:100E30000880084645808648808845F210518842DF
:100E400054D183494889FFF713FD0020FFF713FDB4
:100E50007F494989491C00E077E088B2FFF708FD27
:100E60000020FFF708FD7A494989891C88B2FFF7FD
:100E7000FFFC77490988491EC1F30F20FFF7FBFCEF
:100E800073494989C91C88B2FFF7F2FC7049097897
:100E9000491EC8B2FFF7EFFC6D498889FFF7E8FCEF
:100EA0000020FFF7E8FC6A498989491C88B2FFF7EE
:100EB000DFFC0020FFF7DFFC65498989891C88B2C7
:100EC000FFF7D6FC62494988491EC1F30F20FFF79E
:100ED000D2FC5F498989C91C88B2FFF7C9FC5C490B
:100EE0008978491EC8B2FFF7C6FC55E058494889C1
:100EF000FFF7BEFC0020FFF7BEFC0020FFF7BBFCA5
:100F000053490988491EC1F30F20FFF7B4FC50492B
:100F10000978491EC8B2FFF7AEFC4D498889FFF732
:100F2000A7FC0020FFF7A7FC0020FFF7A4FC48491E
:100F30004988491EC1F30F20FFF79DFC4449897879
:100F4000491EC8B2FFF797FC26E0082C1CD2DFE848
:100F500004F004070A0D0F12151843F0300313E0D4
:100F600043F0100310E043F020030DE000BF0BE05E
:100F700043F0380308E043F0280305E043F018038A
:100F800002E043F0080300BF00BF032643F4805390
:100F900019463046FFF77BFC70BD30B504460D4660
:100FA00029462046FFF7A0FCFFF781FC294800886E
:100FB0002949088030BD30B503460C461546244803
:100FC000808849F24131884205D02148808845F225
:100FD0001031884214D11E494889FFF749FC181284
:100FE000FFF749FCD8B2FFF746FC19498889FFF79B
:100FF0003FFC2012FFF73FFCE0B2FFF73CFC93E020
:101000001348808845F21051884227D110494889F9
:10101000FFF72EFC1812FFF72EFC0D494989491CD9
:1010200088B2FFF725FCD8B2FFF725FC084988896C
:10103000FFF71EFC2012FFF71EFC05498989491C99
:1010400088B2FFF715FCE0B2FFF715FC6CE000007A
:1010500070000020400000200008006CFC488088E0
:1010600041F66311884228D1F948807920B9F848BF
:101070000088401EC01A83B2F5494889FFF7F8FB83
:101080001812FFF7F8FBD8B2FFF7F5FB1812FFF7BD
:10109000F2FBD8B2FFF7EFFBED498889FFF7E8FBD9
:1010A0002012FFF7E8FBE0B2FFF7E5FB2012FFF7A5
:1010B000E2FBE0B2FFF7DFFB36E0E548808846F66A
:1010C000040188421DD1E2488079012804D1E0481A
:1010D0000088401EC01A83B2DD494889FFF7C8FB6B
:1010E0001812FFF7C8FBD8B2FFF7C5FBD8498889AB
:1010F000FFF7BEFB2012FFF7BEFBE0B2FFF7BBFB22
:1011000012E0D3488079012804D1D1480088401EDC
:10111000C01A83B2CE4948891946FFF7B8FBCC49BB
:1011200088892146FFF7B3FBC9480089C94908806F
:10113000881C058030BD2DE9F0470446BE20FFF72E
:1011400097FB0520FFF797FB204605F0A0F907461F
:101150004FF06632C04B05F0ADF9054605F06AF96F
:101160001FFA80F94846FFF786FB0120FFF783FB53
:10117000FF20FFF780FB0020FFF77DFB0020FFF73B
:101180007AFBBDE8F08710B50446002C66D1B04963
:101190008871F02008804FF4A0704880084680884D
:1011A00049F2413188420BD0A948808846F60401B3
:1011B000884205D0A648808845F2103188421AD16D
:1011C0002C20A34908812A2048812B2088810846A9
:1011D000808846F60401884205D09D48808845F203
:1011E0001031884206D14FF4A070994908804FF41D
:1011F000F0704880A1E09648808845F210518842FE
:1012000010D14FF43050924908814FF42850488152
:101210004FF42C5088814FF4F07008804FF44870E0
:1012200048808AE08A48808841F6631188420DD15F
:101230002C20874908812B2048812A2088814FF45F
:10124000F07008804FF44870488076E02220804992
:10125000088120204881212088816EE001207C497E
:1012600088714FF4A0700880F0204880084680887C
:1012700049F24131884205D07548808845F21031E5
:10128000884207D12C20724908812A2048812B20CE
:1012900088813FE06E48808846F60401884207D185
:1012A0002C206B4908812B2048812A20888131E03D
:1012B0006748808845F21051884210D14FF4305071
:1012C000634908814FF4285048814FF42C5088819D
:1012D0004FF4487008804FF4F07048801AE05C4882
:1012E000808841F6631188420DD12C20584908812D
:1012F0002A2048812B2088814FF4487008804FF4C1
:10130000F070488006E02220514908812120488160
:10131000202088814E48808846F60401884205D006
:101320004B48808845F21031884206D14FF4F07066
:10133000474908804FF4A07048800020FFF7B9FCAF
:1013400010BD2DE9F04F86B004460D4690469946F3
:1013500004EB0800401E86B205EB0900401E87B270
:101360003B48808849F24131884215D0384880880E
:1013700045F2103188420FD03548808846F6040186
:10138000884209D032488079012826D130488088A7
:1013900041F66311884220D12D494889FFF768FA48
:1013A0002012FFF768FAE0B2FFF765FA3012FFF794
:1013B00062FAF0B2FFF75FFA25498889FFF758FA19
:1013C0002812FFF758FAE8B2FFF755FA3812FFF77C
:1013D00052FAF8B2FFF74FFABEE01D48808841F696
:1013E000631188423AD11A480088A0EB0800001B1C
:1013F00084B205EB0900401E1FFA80F914494889A0
:10140000FFF736FA2012FFF736FAE0B2FFF733FAA9
:1014100004EB0801491EC1F30F20FFF72CFA04EB7F
:101420000801491EC8B2FFF726FA09498889FFF763
:101430001FFA2812FFF71FFAE8B2FFF71CFA4FEA6B
:101440002920FFF718FA09F0FF00FFF714FA83E0EC
:1014500070000020FE07006C66660440FE4880882D
:1014600045F21051884244D1FB494889FFF700FA00
:101470002012FFF700FAF8494989491C88B2FFF7A2
:10148000F7F9E0B2FFF7F7F9F3494989891C88B207
:10149000FFF7EEF93012FFF7EEF9EF494989C91C61
:1014A00088B2FFF7E5F9F0B2FFF7E5F9EA49888974
:1014B000FFF7DEF92812FFF7DEF9E7498989491CB1
:1014C00088B2FFF7D5F9E8B2FFF7D5F9E249898983
:1014D000891C88B2FFF7CCF93812FFF7CCF9DE4946
:1014E0008989C91C88B2FFF7C3F9F8B2FFF7C3F9BD
:1014F00032E0D948807901280ED1AA46BB46D648A9
:101500000088801B401E80B20190D3480088001BD9
:10151000401E80B2009003E0A246B34601950097BA
:1015200050200590512004905220039053200290A7
:1015300051460598FFF7ABF959460498FFF7A7F90C
:1015400001990398FFF7A3F900990298FFF79FF913
:1015500029462046FFF7C8F906B0BDE8F08F70B500
:1015600004460026BC48058840884543BA48808820
:1015700046F60401884216D1B7488079012812D175
:101580000020B54988712A2048812B2088810021BC
:101590000846FFF7A9F90120AF4988712B2048813F
:1015A0002A20888103E000210846FFF79DF9FFF714
:1015B0007EF9002602E0A9480480761CAE42FAD3E8
:1015C00070BD10B5A648406940F48070A4494861D8
:1015D0000846806940F0080088610846806940F04C
:1015E000200088610846806940F040008861084614
:1015F000806940F4807088619A48006820F00F008C
:10160000984908600846006840F003000860964862
:101610000068964908409449086008460068944963
:10162000084391490860081F006800F0FF20091F67
:1016300008600846006840F0BB1008608D480068EC
:1016400000208C4908600846006840F0BB30086004
:10165000081F006820F07040091F086008460068F5
:1016600040F0304008608448406820F4702082498F
:1016700048600846406840F43020486008460068EA
:1016800020F00F0008600846006840F00B0008607A
:1016900000204FF020418861C861784908604FF010
:1016A0002040806940F480504FF020418861084616
:1016B000806940F4804088610846806940F01000ED
:1016C00088610846C069C8610846C06940F00100E9
:1016D000C8610846C06940F47060C8616748006826
:1016E000C1F81C0165480068C1F81C010846D0F823
:1016F0001C0140F44070C1F81C010846806940F0AC
:1017000001008861322003F0CAFE0020FFF7C4F810
:101710005149888008468088FF280ADB084680886F
:101720004FF6FF71884204D04B488088B0F5134FC4
:101730007ED1D320FFF79CF8FFF7A1F846498880B7
:10174000FFF79DF844498880FFF799F8424988805F
:10175000084680884FF6FF7101EA00203E498880E4
:10176000FFF78DF83C49898808433B498880084643
:10177000808849F2413188425AD0BF20FFF778F87B
:10178000FFF77DF834498880FFF779F8324988807F
:10179000FFF775F830498880FFF771F82E49888087
:1017A000084680884FF6FF7101EA00202A498880A8
:1017B000FFF765F828498988084327498880084643
:1017C000808846F60401884232D0D420FFF750F8D2
:1017D000FFF755F820498880FFF751F81E498880A7
:1017E000FFF74DF81C498880084680884FF6FF7146
:1017F00001EA002018498880FFF741F816498988D6
:101800000843154988800846808845F2103188428F
:101810006BD04FF45A40FFF72BF8FFF730F80E4922
:1018200088804FF45B40FFF723F8FFF728F800E0CB
:101830005BE009498880084680884FF6FF7101EA1D
:101840000020054988804FF45C40FFF711F8FFF74E
:1018500016F80149898813E0700000200008006C28
:1018600000100240000C01400414014000F0FF0091
:10187000BB0B00BB04180140002001401C0100A06C
:101880000843FE49888008468088B0F5004F02D1A1
:1018900045F210508880F948808845F210518842FE
:1018A00023D0A120FEF7E4FFFEF7E9FFF34988808B
:1018B000FEF7E5FFF1498880084680884FF6FF7102
:1018C00001EA0020ED498880FEF7D9FFEB498988BD
:1018D0000843EA4988800846808845F26171884259
:1018E00003D141F66310E5498880E4488188E4A08B
:1018F00004F076FCE148808849F2413188427CD18D
:10190000CF20FEF7B5FF0020FEF7B5FFC120FEF7A0
:10191000B2FF3020FEF7AFFFED20FEF7A9FF6420F5
:10192000FEF7A9FF0320FEF7A6FF1220FEF7A3FF94
:101930008120FEF7A0FFE820FEF79AFF8520FEF742
:101940009AFF1020FEF797FF7A20FEF794FFCB2036
:10195000FEF78EFF3920FEF78EFF2C20FEF78BFF5F
:101960000020FEF788FF3420FEF785FF0220FEF7F7
:1019700082FFF720FEF77CFF2020FEF77CFFEA20A5
:10198000FEF776FF0020FEF776FF0020FEF773FFDC
:10199000C020FEF76DFF1B20FEF76DFFC120FEF794
:1019A00067FF0120FEF767FFC520FEF761FF3020CB
:1019B000FEF761FF3020FEF75EFFC720FEF758FFFD
:1019C000B720FEF758FF3620FEF752FF4820FEF7FB
:1019D00052FF3A20FEF74CFF5520FEF74CFFB12096
:1019E000FEF746FF0020FEF746FF1A20FEF743FFF2
:1019F000B620FEF73DFF0A2000E099E0FEF73BFF2E
:101A0000A220FEF738FFF220FEF732FF0020FEF79B
:101A100032FF2620FEF72CFF0120FEF72CFFE020EE
:101A2000FEF726FF0F20FEF726FF2A20FEF723FFF2
:101A30002820FEF720FF0820FEF71DFF0E20FEF7EE
:101A40001AFF0820FEF717FF5420FEF714FFA92005
:101A5000FEF711FF4320FEF70EFF0A20FEF70BFFF3
:101A60000F20FEF708FF0020FEF705FF0020FEF71D
:101A700002FF0020FEF7FFFE0020FEF7FCFEE12043
:101A8000FEF7F6FE0020FEF7F6FE1520FEF7F3FE49
:101A90001720FEF7F0FE0720FEF7EDFE1120FEF7FF
:101AA000EAFE0620FEF7E7FE2B20FEF7E4FE5620B6
:101AB000FEF7E1FE3C20FEF7DEFE0520FEF7DBFE32
:101AC0001020FEF7D8FE0F20FEF7D5FE3F20FEF7D0
:101AD000D2FE3F20FEF7CFFE0F20FEF7CCFE2B20DC
:101AE000FEF7C6FE0020FEF7C6FE0020FEF7C3FE8E
:101AF0000120FEF7C0FE3F20FEF7BDFE2A20FEF7C4
:101B0000B7FE0020FEF7B7FE0020FEF7B4FE00206F
:101B1000FEF7B1FEEF20FEF7AEFE1120FEF7A8FEA5
:101B2000782003F0BCFC2920FEF7A2FE03F028B9C0
:101B30005248808846F6040188427CD11120FEF785
:101B400097FE142003F0ABFCD020FEF791FE072097
:101B5000FEF791FE4220FEF78EFE1D20FEF78BFE63
:101B6000D120FEF785FE0020FEF785FE1A20FEF745
:101B700082FE0920FEF77FFED220FEF779FE0120CB
:101B8000FEF779FE2220FEF776FEC020FEF770FEFB
:101B90001020FEF770FE3B20FEF76DFE0020FEF7E2
:101BA0006AFE0220FEF767FE1120FEF764FEC520E4
:101BB000FEF75EFE0320FEF75EFEC820FEF758FE2D
:101BC0000020FEF758FE2520FEF755FE2120FEF7E7
:101BD00052FE0520FEF74FFE0020FEF74CFE0A20C5
:101BE000FEF749FE6520FEF746FE2520FEF743FE80
:101BF0007720FEF740FE5020FEF73DFE0F20FEF757
:101C00003AFE0020FEF737FEF820FEF731FE0120F5
:101C1000FEF731FEFE20FEF72BFE0020FEF72BFE26
:101C20000220FEF728FE2020FEF722FE3620FEF7D7
:101C30001FFE082000E037E0FEF71DFE3A20FEF709
:101C400017FE5520FEF717FE2B20FEF711FE002091
:101C5000FEF711FE0020FEF70EFE0120FEF70BFE40
:101C60003F20FEF708FE2A20FEF702FE0020FEF7C6
:101C700002FE0020FEF7FFFD012009E070000020B9
:101C8000204C43442049443A25780D0A00000000C6
:101C9000FEF7F1FDDF20FEF7EEFD782003F0FFFBFD
:101CA0002920FEF7E5FD41E7FE48808845F2103126
:101CB000884240F07C87ED20FEF7DAFD0120FEF738
:101CC000DAFDFE20FEF7D7FDEE20FEF7D1FDDE2087
:101CD000FEF7D1FD2120FEF7CEFDF120FEF7C8FD75
:101CE0000120FEF7C8FDDF20FEF7C2FD1020FEF741
:101CF000C2FDC420FEF7BCFD8F20FEF7BCFDC62050
:101D0000FEF7B6FD0020FEF7B6FDE220FEF7B3FDBC
:101D1000E220FEF7B0FDE220FEF7ADFDBF20FEF7AA
:101D2000A7FDAA20FEF7A7FDB020FEF7A1FD0D201C
:101D3000FEF7A1FD0020FEF79EFD0D20FEF79BFDA6
:101D40000020FEF798FD1120FEF795FD0020FEF71C
:101D500092FD1920FEF78FFD0020FEF78CFD21205B
:101D6000FEF789FD0020FEF786FD2D20FEF783FD9E
:101D70000020FEF780FD3D20FEF77DFD0020FEF7F0
:101D80007AFD5D20FEF777FD0020FEF774FD5D20F3
:101D9000FEF771FD0020FEF76EFDB120FEF768FD35
:101DA0008020FEF768FD0020FEF765FD8B20FEF722
:101DB00062FD0020FEF75FFD9620FEF75CFD00202F
:101DC000FEF759FDB220FEF753FD0020FEF753FD4C
:101DD0000020FEF750FD0220FEF74DFD0020FEF72B
:101DE0004AFD0320FEF747FD0020FEF744FDB32027
:101DF000FEF73EFD0020FEF73EFD0020FEF73BFD16
:101E00000020FEF738FD0020FEF735FD0020FEF72C
:101E100032FD0020FEF72FFD0020FEF72CFD0020F4
:101E2000FEF729FD0020FEF726FD0020FEF723FD2A
:101E30000020FEF720FD0020FEF71DFD0020FEF72C
:101E40001AFD0020FEF717FD0020FEF714FD00200C
:101E5000FEF711FD0020FEF70EFD0020FEF70BFD42
:101E60000020FEF708FD0020FEF705FD0020FEF72C
:101E700002FD0020FEF7FFFC0020FEF7FCFC002026
:101E8000FEF7F9FCB420FEF7F3FC8B20FEF7F3FC21
:101E90000020FEF7F0FC9620FEF7EDFC0020FEF798
:101EA000EAFCA120FEF7E7FC0020FEF7E4FCB520E9
:101EB000FEF7DEFC0220FEF7DEFC0020FEF7DBFC76
:101EC0000320FEF7D8FC0020FEF7D5FC0420FEF727
:101ED000D2FC0020FEF7CFFCB620FEF7C9FC0020A4
:101EE000FEF7C9FC0020FEF7C6FCB720FEF7C0FCD9
:101EF0000020FEF7C0FC0020FEF7BDFC3F20FEF7EF
:101F0000BAFC0020FEF7B7FC5E20FEF7B4FC002010
:101F1000FEF7B1FC6420FEF7AEFC0020FEF7ABFC40
:101F20008C20FEF7A8FC0020FEF7A5FCAC20FEF7F5
:101F3000A2FC0020FEF79FFCDC20FEF79CFC0020AA
:101F4000FEF799FC7020FEF796FC0020FEF793FC4C
:101F50009020FEF790FC0020FEF78DFCEB20FEF7B2
:101F60008AFC0020FEF787FCDC20FEF784FC0020C2
:101F7000FEF781FCB820FEF77BFC0020FEF77BFC1F
:101F80000020FEF778FC0020FEF775FC0020FEF72D
:101F900072FC0020FEF76FFC0020FEF76CFC0020B6
:101FA000FEF769FC0020FEF766FCBA20FEF760FC35
:101FB0002420FEF760FC0020FEF75DFC0020FEF709
:101FC0005AFC0020FEF757FCC120FEF751FC2020F0
:101FD000FEF751FC0020FEF74EFC5420FEF74BFCB0
:101FE0000020FEF748FCFF20FEF745FC0020FEF72E
:101FF00042FCC220FEF73CFC0A20FEF73CFC00201D
:10200000FEF739FC0420FEF736FC0020FEF733FC17
:10201000C320FEF72DFC3C20FEF72DFC0020FEF730
:102020002AFC3A20FEF727FC0020FEF724FC39208A
:10203000FEF721FC0020FEF71EFC3720FEF71BFCFC
:102040000020FEF718FC3C20FEF715FC0020FEF7F0
:1020500012FC3620FEF70FFC0020FEF70CFC3220AD
:10206000FEF709FC0020FEF706FC2F20FEF703FC1C
:102070000020FEF700FC2C20FEF7FDFB0020FEF701
:10208000FAFB2920FEF7F7FB0020FEF7F4FB2620E1
:10209000FEF7F1FB0020FEF7EEFB2420FEF7EBFB42
:1020A000002001E070000020FEF7E5FB2420FEF791
:1020B000E2FB0020FEF7DFFB2320FEF7DCFB002025
:1020C000FEF7D9FB3C20FEF7D6FB0020FEF7D3FB42
:1020D0003620FEF7D0FB0020FEF7CDFB3220FEF7C6
:1020E000CAFB0020FEF7C7FB2F20FEF7C4FB002031
:1020F000FEF7C1FB2C20FEF7BEFB0020FEF7BBFB6A
:102100002920FEF7B8FB0020FEF7B5FB2620FEF7DE
:10211000B2FB0020FEF7AFFB2420FEF7ACFB002053
:10212000FEF7A9FB2420FEF7A6FB0020FEF7A3FB89
:102130002320FEF7A0FB0020FEF79DFBC420FEF746
:1021400097FB6220FEF797FB0020FEF794FB05202B
:10215000FEF791FB0020FEF78EFB8420FEF78BFB41
:102160000020FEF788FBF020FEF785FB0020FEF73D
:1021700082FB1820FEF77FFB0020FEF77CFBA420EB
:10218000FEF779FB0020FEF776FB1820FEF773FBC5
:102190000020FEF770FB5020FEF76DFB0020FEF7DD
:1021A0006AFB0C20FEF767FB0020FEF764FB17209C
:1021B000FEF761FB0020FEF75EFB9520FEF75BFB60
:1021C0000020FEF758FBF320FEF755FB0020FEF73A
:1021D00052FBE620FEF74FFB0020FEF74CFBC5202C
:1021E000FEF746FB3220FEF746FB0020FEF743FBDE
:1021F0004420FEF740FB0020FEF73DFB6520FEF784
:102200003AFB0020FEF737FB7620FEF734FB002078
:10221000FEF731FB8820FEF72EFB0020FEF72BFB9C
:10222000C620FEF725FB2020FEF725FB0020FEF749
:1022300022FB1720FEF71FFB0020FEF71CFB0120EE
:10224000FEF719FB0020FEF716FBC720FEF710FB78
:102250000020FEF710FB0020FEF70DFB0020FEF72C
:102260000AFB0020FEF707FBC820FEF701FB002059
:10227000FEF701FB0020FEF7FEFA0020FEF7FBFA56
:102280000020FEF7F8FAC920FEF7F2FA0020FEF768
:10229000F2FA0020FEF7EFFA0020FEF7ECFA002039
:1022A000FEF7E9FA0020FEF7E6FA0020FEF7E3FA6F
:1022B0000020FEF7E0FA0020FEF7DDFA0020FEF72E
:1022C000DAFA0020FEF7D7FA0020FEF7D4FA002051
:1022D000FEF7D1FA0020FEF7CEFA0020FEF7CBFA87
:1022E0000020FEF7C8FA0020FEF7C5FAE020FEF74E
:1022F000BFFA1620FEF7BFFA0020FEF7BCFA1C203A
:10230000FEF7B9FA0020FEF7B6FA2120FEF7B3FA7D
:102310000020FEF7B0FA3620FEF7ADFA0020FEF7F7
:10232000AAFA4620FEF7A7FA0020FEF7A4FA5220E8
:10233000FEF7A1FA0020FEF79EFA6420FEF79BFA52
:102340000020FEF798FA7A20FEF795FA0020FEF7B3
:1023500092FA8B20FEF78FFA0020FEF78CFA992074
:10236000FEF789FA0020FEF786FAA820FEF783FA26
:102370000020FEF780FAB920FEF77DFA0020FEF774
:102380007AFAC420FEF777FA0020FEF774FACA2022
:10239000FEF771FA0020FEF76EFAD220FEF76BFA14
:1023A0000020FEF768FAD920FEF765FA0020FEF754
:1023B00062FAE020FEF75FFA0020FEF75CFAF320F5
:1023C000FEF759FA0020FEF756FAE120FEF750FA20
:1023D0001620FEF750FA0020FEF74DFA1C20FEF7FB
:1023E0004AFA0020FEF747FA2220FEF744FA0020BE
:1023F000FEF741FA3620FEF73EFA0020FEF73BFAE0
:102400004520FEF738FA0020FEF735FA5220FEF795
:1024100032FA0020FEF72FFA6420FEF72CFA002093
:10242000FEF729FA7A20FEF726FA0020FEF723FAB3
:102430008B20FEF720FA0020FEF71DFA9920FEF708
:102440001AFA0020FEF717FAA820FEF714FA002067
:10245000FEF711FAB920FEF70EFA0020FEF70BFA8C
:10246000C420FEF708FA0020FEF705FACA20FEF79E
:1024700002FA0020FEF7FFF9D220FEF7FCF9002057
:10248000FEF7F9F9D820FEF7F6F90020FEF7F3F988
:10249000E020FEF7F0F90020FEF7EDF9F320FEF75B
:1024A000EAF90020FEF7E7F9E220FEF7E1F905205E
:1024B000FEF7E1F90020FEF7DEF90B20FEF7DBF96D
:1024C0000020FEF7D8F91B20FEF7D5F90020FEF713
:1024D000D2F93420FEF7CFF90020FEF7CCF94420E2
:1024E000FEF7C9F90020FEF7C6F94F20FEF7C3F941
:1024F0000020FEF7C0F96120FEF7BDF90020FEF7CD
:10250000BAF97920FEF7B7F90020FEF7B4F9882070
:10251000FEF7B1F90020FEF7AEF99720FEF7ABF910
:102520000020FEF7A8F9A620FEF7A5F90020FEF787
:10253000A2F9B720FEF79FF90020FEF79CF9C22010
:10254000FEF799F90020FEF796F9C720FEF793F9F8
:102550000020FEF790F9D120FEF78DF90020FEF75C
:102560008AF9D620FEF787F90020FEF784F9DD20EE
:10257000FEF781F90020FEF77EF9F320FEF77BF9E4
:102580000020FEF778F9E320FEF772F90520FEF748
:1025900072F90020FEF76FF90A20FEF76CF90020AF
:1025A000FEF769F91C20FEF766F90020FEF763F9D3
:1025B0003320FEF760F90020FEF75DF94420FEF7B6
:1025C0005AF90020FEF757F95020FEF754F9002081
:1025D000FEF751F96220FEF74EF90020FEF74BF9A5
:1025E0007820FEF748F90020FEF745F98820FEF72D
:1025F00042F90020FEF73FF99720FEF73CF9002052
:10260000FEF739F9A620FEF736F90020FEF733F978
:10261000B720FEF730F90020FEF72DF9C220FEF7B3
:102620002AF90020FEF727F9C720FEF724F9002039
:10263000FEF721F9D120FEF71EF90020FEF71BF965
:10264000D520FEF718F90020FEF715F9DD20FEF77A
:1026500012F90020FEF70FF9F320FEF70CF9002025
:10266000FEF709F9E420FEF703F90120FEF703F96C
:102670000020FEF700F90120FEF7FDF80020FEF72C
:10268000FAF80220FEF7F7F80020FEF7F4F82A2007
:10269000FEF7F1F80020FEF7EEF83C20FEF7EBF82D
:1026A0000020FEF7E8F84B20FEF7E5F80020FEF7E3
:1026B000E2F85D20FEF7DFF80020FEF7DCF874207A
:1026C000FEF7D9F80020FEF7D6F88420FEF7D3F8FD
:1026D0000020FEF7D0F89320FEF7CDF80020FEF79B
:1026E000CAF8A220FEF7C7F80020FEF7C4F8B3200E
:1026F000FEF7C1F80020FEF7BEF8BE20FEF7BBF8DB
:102700000020FEF7B8F8C420FEF7B5F80020FEF769
:10271000B2F8CD20FEF7AFF80020FEF7ACF8D320DA
:10272000FEF7A9F80020FEF7A6F8DD20FEF7A3F8D3
:102730000020FEF7A0F8F320FEF79DF80020FEF73A
:102740009AF8E520FEF794F80020FEF794F80020B0
:10275000FEF791F80020FEF78EF80020FEF78BF8C8
:102760000220FEF788F80020FEF785F82920FEF702
:1027700082F80020FEF77FF83C20FEF77CF800206E
:10278000FEF779F84B20FEF776F80020FEF773F895
:102790005D20FEF770F80020FEF76DF87420FEF75C
:1027A0006AF80020FEF767F88420FEF764F800203E
:1027B000FEF761F89320FEF75EF80020FEF75BF865
:1027C000A220FEF758F80020FEF755F8B320FEF7D8
:1027D00052F80020FEF74FF8BE20FEF74CF800201C
:1027E000FEF749F8C420FEF746F80020FEF743F84C
:1027F000CD20FEF740F80020FEF73DF8D320FEF78D
:102800003AF80020FEF737F8DC20FEF734F8002015
:10281000FEF731F8F320FEF72EF80020FEF72BF834
:10282000E620FEF725F81120FEF725F80020FEF738
:1028300022F83420FEF71FF80020FEF71CF856207F
:10284000FEF719F80020FEF716F87620FEF713F8C9
:102850000020FEF710F87720FEF70DF80020FEF7B5
:102860000AF86620FEF707F80020FEF704F8882033
:10287000FEF701F80020FDF7FEFF9920FDF7FBFFB2
:102880000020FDF7F8FFBB20FDF7F5FF0020FDF766
:10289000F2FF9920FDF7EFFF0020FDF7ECFF662027
:1028A000FDF7E9FF0020FDF7E6FF5520FDF7E3FF08
:1028B0000020FDF7E0FF5520FDF7DDFF0020FDF7CC
:1028C000DAFF4520FDF7D7FF0020FDF7D4FF4320B6
:1028D000FDF7D1FF0020FDF7CEFF4420FDF7CBFF31
:1028E0000020FDF7C8FFE720FDF7C2FF3220FDF70B
:1028F000C2FF0020FDF7BFFF5520FDF7BCFF002001
:10290000FDF7B9FF7620FDF7B6FF0020FDF7B3FF16
:102910006620FDF7B0FF0020FDF7ADFF6720FDF753
:10292000AAFF0020FDF7A7FF6720FDF7A4FF002006
:10293000FDF7A1FF8720FDF79EFF0020FDF79BFF1D
:102940009920FDF798FF0020FDF795FFBB20FDF7CC
:1029500092FF0020FDF78FFF9920FDF78CFF0020EC
:10296000FDF789FF7720FDF786FF0020FDF783FF45
:102970004420FDF780FF0020FDF77DFF5620FDF786
:102980007AFF0020FDF777FF2320FDF774FF00207A
:10299000FDF771FF3320FDF76EFF0020FDF76BFFA1
:1029A0004520FDF768FF0020FDF765FFE820FDF7F3
:1029B0005FFF0020FDF75FFF0020FDF75CFF99201F
:1029C000FDF759FF0020FDF756FF8720FDF753FF65
:1029D0000020FDF750FF8820FDF74DFF0020FDF798
:1029E0004AFF7720FDF747FF0020FDF744FF6620F0
:1029F000FDF741FF0020FDF73EFF8820FDF73BFF7C
:102A00000020FDF738FFAA20FDF735FF0020FDF775
:102A100032FFBB20FDF72FFF0020FDF72CFF992090
:102A2000FDF729FF0020FDF726FF6620FDF723FFB5
:102A30000020FDF720FF5520FDF71DFF0020FDF7CA
:102A40001AFF5520FDF717FF0020FDF714FF442063
:102A5000FDF711FF0020FDF70EFF4420FDF70BFFEF
:102A60000020FDF708FF5520FDF705FF0020FDF7CA
:102A700002FFE920FDF7FCFEAA20FDF7FCFE002086
:102A8000FDF7F9FE0020FDF7F6FE0020FDF7F3FE4E
:102A90000020FDF7EDFEAA20FDF7EDFECF20FDF7AB
:102AA000E7FE0020FDF7E7FE0020FDF7E4FE002032
:102AB000FDF7E1FE0020FDF7DEFE0020FDF7DBFE66
:102AC0000020FDF7D8FE0020FDF7D5FE0020FDF721
:102AD000D2FE0020FDF7CFFE0020FDF7CCFE002047
:102AE000FDF7C9FE0020FDF7C6FE0020FDF7C3FE7E
:102AF0000020FDF7C0FE0020FDF7BDFE0020FDF721
:102B0000BAFE0020FDF7B7FEF020FDF7B1FE002071
:102B1000FDF7B1FE5020FDF7AEFE0020FDF7ABFE45
:102B20000020FDF7A8FE0020FDF7A5FEF320FDF72D
:102B30009FFE0020FDF79FFEF920FDF799FE06207D
:102B4000FDF799FE1020FDF796FE2920FDF793FE74
:102B50000020FDF790FE3A20FDF78AFE5520FDF794
:102B60008AFE1120FDF784FE642002F098FC2920E3
:102B7000FDF77EFE3520FDF77BFE0020FDF77BFE96
:102B80005120FDF775FEFF20FDF775FE5320FDF780
:102B90006FFE2C20FDF76FFE5520FDF769FE8220A9
:102BA000FDF769FE2C20FDF763FE02F0E9B8FE4850
:102BB000808845F2105188427ED155214FF47040F3
:102BC000FDF765FEAA214FF20100FDF760FE5221DC
:102BD0004FF20200FDF75BFE08214FF20300FDF704
:102BE00056FE01214FF20400FDF751FE0D214FF476
:102BF0003040FDF74CFE0D214BF20100FDF747FE82
:102C00000D214BF20200FDF742FE34214FF4364015
:102C1000FDF73DFE34214BF20160FDF738FE342113
:102C20004BF20260FDF733FE0D214FF43140FDF70A
:102C30002EFE0D214BF20110FDF729FE0D214BF266
:102C40000210FDF724FE34214FF43740FDF71FFE3C
:102C500034214BF20170FDF71AFE34214BF2027061
:102C6000FDF715FE00214FF43240FDF710FE002164
:102C70004BF20120FDF70BFE00214BF20220FDF785
:102C800006FE24214FF43840FDF701FE24214BF6C7
:102C90000100FDF7FCFD24214BF60200FDF7F7FDD6
:102CA00001214FF43F40FDF7F2FD0F214FF4334077
:102CB000FDF7EDFD0F2100E0FEE34BF20130FDF7E3
:102CC000E6FD0F214BF20230FDF7E1FD34214FF418
:102CD0003940FDF7DCFD34214BF60110FDF7D7FD3F
:102CE00034214BF60210FDF7D2FD08214FF4354098
:102CF000FDF7CDFD08214BF20150FDF7C8FD08217D
:102D00004BF20250FDF7C3FD03214FF44240FDF7A3
:102D1000BEFD24214FF43A40FDF7B9FD24214BF6C6
:102D20000120FDF7B4FD24214BF60220FDF7AFFD95
:102D300000214FF43C40FDF7AAFD78214BF60140FD
:102D4000FDF7A5FD00214BF60240FDF7A0FD002197
:102D50004FF43D40FDF79BFD78214BF60150FDF708
:102D600096FD00214BF60250FDF791FD00214FF436
:102D70003E40FDF78CFD64214BF60160FDF787FDB9
:102D800000214FF45140FDF782FD33214DF2011037
:102D9000FDF77DFD00214DF20210FDF778FD342195
:102DA0004DF20310FDF773FD00214DF20410FDF705
:102DB0006EFD3A214DF20510FDF769FD00214DF23F
:102DC0000610FDF764FD4A214DF20710FDF75FFD87
:102DD00000214DF20810FDF75AFD5C214DF209105B
:102DE000FDF755FD00214DF20A10FDF750FD812140
:102DF0004DF20B10FDF74BFD00214DF20C10FDF7CD
:102E000046FDA6214DF20D10FDF741FD00214DF2CA
:102E10000E10FDF73CFDE5214DF20F10FDF737FDDB
:102E200001214DF21010FDF732FD13214DF211106A
:102E3000FDF72DFD01214DF21210FDF728FD542163
:102E40004DF21310FDF723FD01214DF21410FDF793
:102E50001EFD82214DF21510FDF719FD01214DF2E5
:102E60001610FDF714FDCA214DF21710FDF70FFDE6
:102E700002214DF21810FDF70AFD00214DF2191044
:102E8000FDF705FD02214DF21A10FDF700FD0121AD
:102E90004DF21B10FDF7FBFC02214DF21C10FDF75B
:102EA000F6FC34214DF21D10FDF7F1FC02214DF22C
:102EB0001E10FDF7ECFC67214DF21F10FDF7E7FC3B
:102EC00002214DF22010FDF7E2FC84214DF2211089
:102ED000FDF7DDFC02214DF22210FDF7D8FCA42104
:102EE0004DF22310FDF7D3FC02214DF22410FDF723
:102EF000CEFCB7214DF22510FDF7C9FC02214DF2A1
:102F00002610FDF7C4FCCF214DF22710FDF7BFFCC2
:102F100002214DF22810FDF7BAFCDE214DF22910F6
:102F2000FDF7B5FC02214DF22A10FDF7B0FCF221AD
:102F30004DF22B10FDF7ABFC02214DF22C10FDF7EA
:102F4000A6FCFE214DF22D10FDF7A1FC03214DF250
:102F50002E10FDF79CFC10214DF22F10FDF797FC71
:102F600003214DF23010FDF792FC33214DF2311068
:102F7000FDF78DFC03214DF23210FDF788FC6D2129
:102F80004DF23310FDF783FC00214FF45240FDF762
:102F90007EFC33214DF20120FDF779FC00214DF23A
:102FA0000220FDF774FC01E07000002034214DF296
:102FB0000320FDF76CFC00214DF20420FDF767FCB7
:102FC0003A214DF20520FDF762FC00214DF206206A
:102FD000FDF75DFC4A214DF20720FDF758FC00216A
:102FE0004DF20820FDF753FC5C214DF20920FDF75E
:102FF0004EFC00214DF20A20FDF749FC81214DF2E3
:103000000B20FDF744FC00214DF20C20FDF73FFCA6
:10301000A6214DF20D20FDF73AFC00214DF20E20C5
:10302000FDF735FCE5214DF20F20FDF730FC0121C5
:103030004DF21020FDF72BFC13214DF21120FDF76E
:1030400026FC01214DF21220FDF721FC54214DF206
:103050001320FDF71CFC01214DF21420FDF717FC95
:1030600082214DF21520FDF712FC01214DF21620B0
:10307000FDF70DFCCA214DF21720FDF708FC0221D7
:103080004DF21820FDF703FC00214DF21920FDF749
:10309000FEFB02214DF21A20FDF7F9FB01214DF252
:1030A0001B20FDF7F4FB02214DF21C20FDF7EFFB86
:1030B00034214DF21D20FDF7EAFB02214DF21E20C6
:1030C000FDF7E5FB67214DF21F20FDF7E0FB022134
:1030D0004DF22020FDF7DBFB84214DF22120FDF78E
:1030E000D6FB02214DF22220FDF7D1FBA4214DF2A7
:1030F0002320FDF7CCFB02214DF22420FDF7C7FB76
:10310000B7214DF22520FDF7C2FB02214DF226200A
:10311000FDF7BDFBCF214DF22720FDF7B8FB0221C3
:103120004DF22820FDF7B3FBDE214DF22920FDF7FB
:10313000AEFB02214DF22A20FDF7A9FBF2214DF250
:103140002B20FDF7A4FB02214DF22C20FDF79FFB65
:10315000FE214DF22D20FDF79AFB03214DF22E208A
:10316000FDF795FB10214DF22F20FDF790FB032179
:103170004DF23020FDF78BFB33214DF23120FDF76E
:1031800086FB03214DF23220FDF781FB6D214DF2CC
:103190003320FDF77CFB00214FF45340FDF777FB14
:1031A00033214DF20130FDF772FB00214DF2023068
:1031B000FDF76DFB34214DF20330FDF768FB002174
:1031C0004DF20430FDF763FB3A214DF20530FDF777
:1031D0005EFB00214DF20630FDF759FB4A214DF20E
:1031E0000730FDF754FB00214DF20830FDF74FFB8F
:1031F0005C214DF20930FDF74AFB00214DF20A3007
:10320000FDF745FB81214DF20B30FDF740FB00211E
:103210004DF20C30FDF73BFBA6214DF20D30FDF7D2
:1032200036FB00214DF20E30FDF731FBE5214DF26A
:103230000F30FDF72CFB01214DF21030FDF727FB7D
:1032400013214DF21130FDF722FB01214DF2123016
:10325000FDF71DFB54214DF21330FDF718FB012142
:103260004DF21430FDF713FB82214DF21530FDF7BE
:103270000EFB01214DF21630FDF709FBCA214DF27C
:103280001730FDF704FB02214DF21830FDF7FFFA6D
:1032900000214DF21930FDF7FAFA02214DF21A30F1
:1032A000FDF7F5FA01214DF21B30FDF7F0FA02218E
:1032B0004DF21C30FDF7EBFA34214DF21D30FDF7D5
:1032C000E6FA02214DF21E30FDF7E1FA67214DF2D8
:1032D0001F30FDF7DCFA02214DF22030FDF7D7FA5E
:1032E00084214DF22130FDF7D2FA02214DF2223035
:1032F000FDF7CDFAA4214DF22330FDF7C8FA0221E3
:103300004DF22430FDF7C3FAB7214DF22530FDF719
:10331000BEFA02214DF22630FDF7B9FACF214DF267
:103320002730FDF7B4FA02214DF22830FDF7AFFA4D
:10333000DE214DF22930FDF7AAFA02214DF22A30A2
:10334000FDF7A5FAF2214DF22B30FDF7A0FA02218C
:103350004DF22C30FDF79BFAFE214DF22D30FDF79A
:1033600096FA03214DF22E30FDF791FA10214DF21D
:103370002F30FDF78CFA03214DF23030FDF787FA3C
:1033800033214DF23130FDF782FA03214DF2323014
:10339000FDF77DFA6D214DF23330FDF778FA00210B
:1033A0004FF45440FDF773FA33214DF20140FDF71D
:1033B0006EFA00214DF20240FDF769FA34214DF218
:1033C0000340FDF764FA00214DF20440FDF75FFA77
:1033D0003A214DF20540FDF75AFA00214DF2064020
:1033E000FDF755FA4A214DF20740FDF750FA00214A
:1033F0004DF20840FDF74BFA5C214DF20940FDF714
:1034000046FA00214DF20A40FDF741FA81214DF2C2
:103410000B40FDF73CFA00214DF20C40FDF737FA66
:10342000A6214DF20D40FDF732FA00214DF20E407B
:10343000FDF72DFAE5214DF20F40FDF728FA0121A5
:103440004DF21040FDF723FA13214DF21140FDF724
:103450001EFA01214DF21240FDF719FA54214DF2E6
:103460001340FDF714FA01214DF21440FDF70FFA55
:1034700082214DF21540FDF70AFA01214DF2164066
:10348000FDF705FACA214DF21740FDF700FA0221B7
:103490004DF21840FDF7FBF900214DF21940FDF700
:1034A000F6F902214DF21A40FDF7F1F901214DF232
:1034B0001B40FDF7ECF900E004E302214DF21C4053
:1034C000FDF7E5F934214DF21D40FDF7E0F9022149
:1034D0004DF21E40FDF7DBF967214DF21F40FDF76D
:1034E000D6F902214DF22040FDF7D1F984214DF2A9
:1034F0002140FDF7CCF902214DF22240FDF7C7F93A
:10350000A4214DF22340FDF7C2F902214DF22440DF
:10351000FDF7BDF9B7214DF22540FDF7B8F90221BD
:103520004DF22640FDF7B3F9CF214DF22740FDF7CC
:10353000AEF902214DF22840FDF7A9F9DE214DF246
:103540002940FDF7A4F902214DF22A40FDF79FF929
:10355000F2214DF22B40FDF79AF902214DF22C4059
:10356000FDF795F9FE214DF22D40FDF790F903216D
:103570004DF22E40FDF78BF910214DF22F40FDF753
:1035800086F903214DF23040FDF781F933214DF2E8
:103590003140FDF77CF903214DF23240FDF777F918
:1035A0006D214DF23340FDF772F900214FF4554083
:1035B000FDF76DF933214DF20150FDF768F9002157
:1035C0004DF20250FDF763F934214DF20350FDF73F
:1035D0005EF900214DF20450FDF759F93A214DF200
:1035E0000550FDF754F900214DF20650FDF74FF953
:1035F0004A214DF20750FDF74AF900214DF20850DB
:10360000FDF745F95C214DF20950FDF740F9002125
:103610004DF20A50FDF73BF981214DF20B50FDF7B9
:1036200036F900214DF20C50FDF731F9A6214DF28B
:103630000D50FDF72CF900214DF20E50FDF727F942
:10364000E5214DF20F50FDF722F901214DF2105006
:10365000FDF71DF913214DF21150FDF718F9012165
:103660004DF21250FDF713F954214DF21350FDF7AE
:103670000EF901214DF21450FDF709F982214DF2A6
:103680001550FDF704F901214DF21650FDF7FFF832
:10369000CA214DF21750FDF7FAF802214DF21850E9
:1036A000FDF7F5F800214DF21950FDF7F0F8022171
:1036B0004DF21A50FDF7EBF801214DF21B50FDF7CA
:1036C000E6F802214DF21C50FDF7E1F834214DF2ED
:1036D0001D50FDF7DCF802214DF21E50FDF7D7F822
:1036E00067214DF21F50FDF7D2F802214DF2205014
:1036F000FDF7CDF884214DF22150FDF7C8F80221E5
:103700004DF22250FDF7C3F8A4214DF22350FDF7EE
:10371000BEF802214DF22450FDF7B9F8B7214DF261
:103720002550FDF7B4F802214DF22650FDF7AFF811
:10373000CF214DF22750FDF7AAF802214DF2285073
:10374000FDF7A5F8DE214DF22950FDF7A0F8022182
:103750004DF22A50FDF79BF8F2214DF22B50FDF768
:1037600096F802214DF22C50FDF791F8FE214DF212
:103770002D50FDF78CF803214DF22E50FDF787F800
:1037800010214DF22F50FDF782F803214DF23050F9
:10379000FDF77DF833214DF23150FDF778F8032124
:1037A0004DF23250FDF773F86D214DF23350FDF7B5
:1037B0006EF800214FF45640FDF769F833214DF2C1
:1037C0000160FDF764F800214DF20260FDF75FF83B
:1037D00034214DF20360FDF75AF800214DF20460E8
:1037E000FDF755F83A214DF20560FDF750F800213C
:1037F0004DF20660FDF74BF84A214DF20760FDF7E8
:1038000046F800214DF20860FDF741F85C214DF2C9
:103810000960FDF73CF800214DF20A60FDF737F82A
:1038200081214DF20B60FDF732F800214DF20C6062
:10383000FDF72DF8A6214DF20D60FDF728F80021C7
:103840004DF20E60FDF723F8E5214DF20F60FDF714
:103850001EF801214DF21060FDF719F813214DF209
:103860001160FDF714F801214DF21260FDF70FF819
:1038700054214DF21360FDF70AF801214DF2146056
:10388000FDF705F882214DF21560FDF700F80121E2
:103890004DF21660FCF7FBFFCA214DF21760FCF7F2
:1038A000F6FF02214DF21860FCF7F1FF00214DF206
:1038B0001960FCF7ECFF02214DF21A60FCF7E7FFFC
:1038C00001214DF21B60FCF7E2FF02214DF21C606A
:1038D000FCF7DDFF34214DF21D60FCF7D8FF02211B
:1038E0004DF21E60FCF7D3FF67214DF21F60FCF71D
:1038F000CEFF02214DF22060FCF7C9FF84214DF27A
:103900002160FCF7C4FF02214DF22260FCF7BFFFEB
:10391000A4214DF22360FCF7BAFF02214DF224608E
:10392000FCF7B5FFB7214DF22560FCF7B0FF02218F
:103930004DF22660FCF7ABFFCF214DF22760FCF77C
:10394000A6FF02214DF22860FCF7A1FFDE214DF217
:103950002960FCF79CFF02214DF22A60FCF797FFDB
:10396000F2214DF22B60FCF792FF02214DF22C6008
:10397000FCF78DFFFE214DF22D60FCF788FF03213F
:103980004DF22E60FCF783FF10214DF22F60FCF703
:103990007EFF03214DF23060FCF779FF33214DF2B9
:1039A0003160FCF774FF03214DF23260FCF76FFFCA
:1039B0006D214DF23360FCF76AFF55214FF47040E2
:1039C000FCF765FFAA214FF20100FCF760FF5221CE
:1039D0004FF20200FCF75BFF08214FF20300FCF7F7
:1039E00056FF00214FF20400FCF751FFCC214FF4A9
:1039F0003140FCF74CFF00214BF20110FCF747FF70
:103A000005214FF43640FCF742FF70214FF4374058
:103A1000FCF73DFF70214BF20170FCF738FF0121EC
:103A20004FF43840FCF733FF03214BF60100FCF75D
:103A30002EFF03214BF60200FCF729FF03214BF672
:103A40000300FCF724FF02214FF43C40FCF71FFF6A
:103A500000214BF60140FCF71AFF00214BF6024013
:103A6000FCF715FFD0214FF44940FCF710FF02216D
:103A70004CF60110FCF70BFF50214CF60210FCF73E
:103A800006FF50214CF60310FCF701FF50214CF6C5
:103A90000410FCF7FCFE00214FF45450FCF7F7FE35
:103AA00055214FF46850FCF7F2FE4FF48850FCF7B4
:103AB000DFFE782001F0CFFC4FF42450FCF7D8FE55
:103AC00001F05EB9FE48808849F2253188427DD1F7
:103AD00047F6F001E520FCF7DAFE4FF48071012093
:103AE000FCF7D5FE4FF4E0610220FCF7D0FE41F276
:103AF00030010320FCF7CBFE00210420FCF7C7FEB9
:103B000040F202210820FCF7C2FE00210920FCF748
:103B1000BEFE00210A20FCF7BAFE00210C20FCF7B3
:103B2000B6FE00210D20FCF7B2FE00210F20FCF7AD
:103B3000AEFE00211020FCF7AAFE07211120FCF7A1
:103B4000A6FE00211220FCF7A2FE00211320FCF7A4
:103B50009EFE00210720FCF79AFE41F290611020A2
:103B6000FCF795FE40F227211120FCF790FE9D21E5
:103B70001220FCF78CFE4FF4C8511320FCF787FE8F
:103B800025212920FCF783FE0D212B20FCF77FFE49
:103B900007213020FCF77BFE40F203313120FCF797
:103BA00076FE03213220FCF772FE40F2062135201A
:103BB000FCF76DFE08213620FCF769FE40F2064155
:103BC0003720FCF764FE4FF4417100E058E03820E4
:103BD000FCF75DFE07213920FCF759FE40F2026137
:103BE0003C20FCF754FE08213D20FCF750FE00214C
:103BF0005020FCF74CFEEF215120FCF748FE00213D
:103C00005220FCF744FE40F23F115320FCF73FFEE8
:103C10004FF427416020FCF73AFE01216120FCF7B8
:103C200036FE00216A20FCF732FE00218020FCF7DE
:103C30002EFE00218120FCF72AFE00218220FCF7C5
:103C400026FE00218320FCF722FE00218420FCF7C1
:103C50001EFE00218520FCF71AFE10219020FCF7A3
:103C600016FE4FF4C0619220FCF711FE40F23311B2
:103C70000720FCF70CFE22210020FCF708FE1FE7BE
:103C80008F48808849F2283188427DD141F28F01E6
:103C9000EC20FCF7FCFD41F23421EF20FCF7F7FDAE
:103CA0004FF480710120FCF7F2FD4FF4E061022037
:103CB000FCF7EDFD41F230010320FCF7E8FD0021A7
:103CC0000420FCF7E4FD40F202210820FCF7DFFDB0
:103CD00000210920FCF7DBFD00210A20FCF7D7FDBD
:103CE00001210C20FCF7D3FD00210D20FCF7CFFDB6
:103CF00000210F20FCF7CBFD00211020FCF7C7FDB1
:103D000007211120FCF7C3FD00211220FCF7BFFDA5
:103D100000211320FCF7BBFD01210720FCF7B7FDB4
:103D2000322001F0BCFB41F290411020FCF7AFFDC6
:103D300040F227211120FCF7AAFD322001F0AFFB51
:103D40008A211220FCF7A3FD322001F0A8FB4FF4DA
:103D5000D0511320FCF79BFD06212920FCF797FD8D
:103D60000D212B20FCF793FD322001F098FB002160
:103D70002020FCF78CFD00212120FCF788FD32205B
:103D800001F08DFB002100E075E03020FCF77FFDA5
:103D900040F204613120FCF77AFD40F20531322017
:103DA000FCF775FD00213520FCF771FD40F6094157
:103DB0003620FCF76CFD4FF401713720FCF767FDEE
:103DC00040F201313820FCF762FD40F207713920E2
:103DD000FCF75DFD00213C20FCF759FD40F60A216F
:103DE0003D20FCF754FD322001F059FB002150200A
:103DF000FCF74DFDEF215120FCF749FD0021522039
:103E0000FCF745FD40F23F115320FCF740FD4FF415
:103E100027416020FCF73BFD01216120FCF737FDC5
:103E200000216A20FCF733FD00218020FCF72FFDE4
:103E300000218120FCF72BFD00218220FCF727FDCB
:103E400000218320FCF723FD00218420FCF71FFDC7
:103E500000218520FCF71BFD10219020FCF717FDA9
:103E60004FF4C0619220FCF712FD40F2331107209D
:103E7000FCF70DFD24E61248808849F22031884283
:103E80007ED100210846FCF702FD4FF4807101202D
:103E9000FCF7FDFC4FF4E0610220FCF7F8FC41F276
:103EA00030010320FCF7F3FC00210420FCF7EFFCB9
:103EB00040F202210820FCF7EAFC0021092001E081
:103EC00070000020FCF7E3FC00210A20FCF7DFFC77
:103ED00001210C20FCF7DBFC00210D20FCF7D7FCB6
:103EE00000210F20FCF7D3FC322001F0D8FA40F279
:103EF00001110720FCF7CBFC322001F0D0FA4FF47F
:103F000086511020FCF7C3FC07211120FCF7BFFCF1
:103F10004FF488711220FCF7BAFC4FF43061132083
:103F2000FCF7B5FC00212920FCF7B1FC44F210019C
:103F30002B20FCF7ACFC00215020FCF7A8FCEF2163
:103F40005120FCF7A4FC00215220FCF7A0FC40F219
:103F50003F115320FCF79BFC4FF41C516020FCF7F1
:103F600096FC01216120FCF792FC00216A20FCF7FD
:103F70008EFC00218020FCF78AFC0021812000E0DB
:103F800030E0FCF784FC00218220FCF780FC00215B
:103F90008320FCF77CFC00218420FCF778FC0021C6
:103FA0008520FCF774FC10219020FCF770FC0021A8
:103FB0009220FCF76CFC01219320FCF768FC4FF485
:103FC00088719520FCF763FC00219720FCF75FFCCB
:103FD00000219820FCF75BFC40F273110720FCF7EE
:103FE00056FC6DE5FE48808849F2313188427DD12A
:103FF00041F21401E720FCF74AFC4FF480710120E4
:10400000FCF745FC4FF400710220FCF740FC41F244
:1040100038010320FCF73BFC40F202210820FCF7AA
:1040200036FC00210920FCF732FC00210A20FCF7B5
:104030002EFC00210C20FCF72AFC00210D20FCF7AF
:1040400026FC00210F20FCF722FC00211020FCF7A9
:104050001EFC07211120FCF71AFC00211220FCF79E
:1040600016FC00211320FCF712FCC82001F017FAFF
:1040700041F290611020FCF70AFC40F22721112048
:10408000FCF705FC322001F00AFA0C211220FCF7A3
:10409000FEFB322001F003FA4FF400611320FCF71D
:1040A000F6FB11212920FCF7F2FB0B212B20FCF75A
:1040B000EEFB322001F0F3F900212020FCF7E7FBB2
:1040C00040F23F112120FCF7E2FB00213020FCF7F9
:1040D000DEFB4FF483713120FCF7D9FB0021322045
:1040E000FCF7D5FB4FF40171352000E064E0FCF7EC
:1040F000CEFB41F20A613620FCF7C9FB40F20771A2
:104100003720FCF7C4FB4FF483713820FCF7BFFB6A
:1041100040F207713920FCF7BAFB40F202413C2023
:10412000FCF7B5FB40F60F413D20FCF7B0FB00214A
:104130005020FCF7ACFBEF215120FCF7A8FB00213D
:104140005220FCF7A4FB40F23F115320FCF79FFBE9
:104150004FF41C516020FCF79AFB01216120FCF711
:1041600096FB00216A20FCF792FB00218020FCF7DF
:104170008EFB00218120FCF78AFB00218220FCF7C6
:1041800086FB00218320FCF782FB00218420FCF7C2
:104190007EFB00218520FCF77AFB10219020FCF7A4
:1041A00076FB4FF4C0619220FCF771FB40F23311B3
:1041B0000720FCF76CFB83E48948808845F20841BE
:1041C00088427DD14FF480710120FCF760FB4FF4F1
:1041D000E0610220FCF75BFB41F230010320FCF7B9
:1041E00056FB00210420FCF752FB40F20721082077
:1041F000FCF74DFB00210920FCF749FB00210A20B8
:10420000FCF745FB00210C20FCF741FB00210D20B1
:10421000FCF73DFB00210F20FCF739FB142001F0D7
:104220003EF941F2B0611020FCF731FB0121112071
:10423000FCF72DFB01211720FCF729FB4FF49C71A3
:104240001220FCF724FB4FF400611320FCF71FFB46
:1042500009212920FCF71BFB09212A20FCF717FB69
:104260000021A420FCF713FB00215020FCF70FFBDA
:10427000EF215120FCF70BFB00215220FCF707FB3C
:1042800040F23F115320FCF702FB4FF41C51602019
:10429000FCF7FDFA01216120FCF7F9FA00216A2000
:1042A000FCF7F5FA00218020FCF7F1FA00218120CB
:1042B000FCF7EDFA00218220FCF7E9FA002100E08A
:1042C00024E08320FCF7E3FA00218420FCF7DFFAE6
:1042D00000218520FCF7DBFA13219020FCF7D7FAA8
:1042E00000219220FCF7D3FA03219320FCF7CFFAA8
:1042F0004FF488719520FCF7CAFA40F27311072039
:10430000FCF7C5FA322001F0CAF8B8E434488088D6
:1043100041F2055188427DD100210720FCF7B7FA10
:10432000322001F0BCF84FF48E711220FCF7AFFA86
:104330000121A420FCF7ABFA0F210820FCF7A7FA13
:1043400008210A20FCF7A3FA08210D20FCF79FFAA8
:1043500040F207713020FCF79AFA07213120FCF770
:1043600096FA40F203613220FCF791FA4FF4E061D3
:104370003320FCF78CFA40F202213420FCF787FA54
:1043800002213520FCF783FA41F60F713620FCF745
:104390007EFA40F207713720FCF779FA00213820C5
:1043A000FCF775FA00213920FCF771FA40F2077129
:1043B0003A20FCF76CFA00213B20FCF768FA072151
:1043C0003C20FCF764FA00213D20FCF760FA322023
:1043D00001F065F801210720FCF759FA012101E0FD
:1043E000700000201720FCF752FA322001F057F835
:1043F0004FF4BD511020FCF74AFA40F2172111206A
:10440000FCF745FA4FF48F711220FCF740FA4FF495
:10441000706100E098E01320FCF739FA00212A20AF
:10442000FCF735FA0A212920FCF731FA4FF49F7185
:104430001220FCF72CFA00215020FCF728FAEF217B
:104440005120FCF724FA00215220FCF720FA40F218
:104450003F115320FCF71BFA4FF41C516020FCF76E
:1044600016FA01216120FCF712FA00216A20FCF7FC
:104470000EFA00218020FCF70AFA00218120FCF7C7
:1044800006FA00218220FCF702FA00218320FCF7C3
:10449000FEF900218420FCF7FAF900218520FCF7C1
:1044A000F6F913219020FCF7F2F94FF440719220B5
:1044B000FCF7EDF905219320FCF7E9F9002195209F
:1044C000FCF7E5F900219720FCF7E1F9002198209D
:1044D000FCF7DDF94FF480710120FCF7D8F94FF4B7
:1044E000E0610220FCF7D3F941F238010320FCF728
:1044F000CEF900210420FCF7CAF900210C20FCF7BA
:10450000C6F900210F20FCF7C2F900212020FCF79A
:10451000BEF900212120FCF7BAF921210720FCF780
:10452000B6F9142000F0BBFF61210720FCF7AFF9BA
:10453000142000F0B4FF40F273110720FCF7A7F934
:10454000142000F0ACFF95E4FE4880884BF2055142
:1045500088427CD100210846FCF799F900210846E1
:10456000FCF795F900210846FCF791F9002108466F
:10457000FCF78DF90121A420FCF789F9142000F043
:104580008EFF4FF41C516020FCF781F940F20221AC
:104590000820FCF77CF94FF405713020FCF777F91F
:1045A00043F215713120FCF772F940F204613220B8
:1045B000FCF76DF940F616613320FCF768F942F21A
:1045C00011213420FCF763F94FF4A8513520FCF792
:1045D0005EF948F207513620FCF759F941F20741DC
:1045E0003720FCF754F941F203413820FCF74FF92A
:1045F00020213920FCF74BF91A219020FCF747F9CC
:1046000000211020FCF743F907211120FCF73FF9A6
:1046100000211220FCF73BF900211320FCF737F9A9
:10462000142000F03CFF4FF4E6611020FCF72FF956
:1046300040F237111120FCF72AF9142000F02FFF67
:104640004FF4DC711220FCF722F9142000E085E021
:1046500000F025FF4FF470611320FCF718F980215A
:104660002A20FCF714F948212920FCF710F914201E
:1046700000F015FF4FF480710120FCF708F94FF4AA
:10468000E0610220FCF703F941F238010320FCF756
:10469000FEF840F202210820FCF7F9F800210A2078
:1046A000FCF7F5F800210C20FCF7F1F800210D20B3
:1046B000FCF7EDF830210E20FCF7E9F8002150203E
:1046C000FCF7E5F8EF215120FCF7E1F8002152203A
:1046D000FCF7DDF840F23F115320FCF7D8F84FF417
:1046E0001C516020FCF7D3F801216120FCF7CFF8C2
:1046F00000216A20FCF7CBF811219020FCF7C7F8C5
:104700004FF4C0619220FCF7C2F840F202419320BE
:10471000FCF7BDF802219420FCF7B9F8142000F052
:10472000BEFE01210720FCF7B2F8142000F0B7FE0E
:1047300061210720FCF7ABF840F273110720FCF76A
:10474000A6F800212020FCF7A2F800212120FCF788
:104750009EF822210020FCF79AF811E3794880881E
:104760004CF2055188427CD100210846FCF78FF8B5
:1047700000210846FCF78BF8142000F090FE002181
:104780000846FCF784F800210846FCF780F8002171
:104790000846FCF77CF800210846FCF778F8012170
:1047A000A420FCF774F8142000F079FE4FF41C519B
:1047B0006020FCF76CF840F606010820FCF767F86B
:1047C00040F203713020FCF762F801213120FCF740
:1047D0005EF804213220FCF75AF84FF4817133203F
:1047E000FCF755F84FF440713420FCF750F840F2D4
:1047F00003113520FCF74BF81F213620FCF747F852
:1048000040F203713720FCF742F801213820FCF711
:104810003EF804213920FCF73AF815219020FCF7E6
:1048200036F84FF482611020FCF731F840F247214E
:104830001120FCF72CF84FF4DE711220FCF727F85A
:104840004FF460611320FCF722F8782000F027FE77
:104850004FF480710120FCF71AF84FF40071022028
:1048600000E052E0FCF713F841F230010320FCF7BE
:104870000EF808210A20FCF70AF800210C20FCF7AA
:1048800006F820210E20FCF702F800210F20FBF78C
:10489000FEFF00212020FBF7FAFF00212120FBF77B
:1048A000F6FF3D212A20FBF7F2FF142000F0F7FD70
:1048B0002D212920FBF7EBFF00215020FBF7E7FF1C
:1048C0004DF2EF015120FBF7E2FF00215220FBF7F0
:1048D000DEFF40F23F115320FBF7D9FF002161209A
:1048E000FBF7D5FF00216A20FBF7D1FF4FF44071A1
:1048F0009220FBF7CCFF05219320FBF7C8FF4FF474
:1049000080710720FBF7C3FF3AE20E48808844F22B
:10491000315188427ED101210020FBF7B8FF0A20E7
:1049200000F0BDFD41F228611020FBF7B0FF0E2121
:104930001220FBF7ACFF40F639211320FBF7A7FF4D
:104940000A2001E07000002000F0A9FD40211120A4
:10495000FBF79DFF50211520FBF799FF0A2000F07F
:104960009EFD1E211220FBF792FF0A2000F097FD0A
:104970004FF4B1511020FBF78AFF42F63921132082
:10498000FBF785FF0A2000F08AFD4FF480710120BB
:10499000FBF77DFF4FF440710220FBF778FF41F2F7
:1049A00038010320FBF773FF40F202210820FBF7D8
:1049B0006EFF08210A20FBF76AFF00213020FBF779
:1049C00066FF40F202413120FBF761FF4FF4837133
:1049D0003220FBF75CFF40F203513320FBF757FF17
:1049E0004FF482713420FBF752FF40F20131352041
:1049F000FBF74DFF40F207713620FBF748FF40F20E
:104A000005313720FBF743FF4FF402713820FBF7E5
:104A10003EFF00E03EE040F60B713920FBF737FF28
:104A200002214120FBF733FF4FF41C516020FBF7BC
:104A30002EFF01216120FBF72AFF4FF40471902023
:104A4000FBF725FF4FF485719220FBF720FF04212F
:104A50009320FBF71CFF4FF48071A020FBF717FF9A
:104A600001210720FBF713FF21210720FBF70FFF90
:104A700023210720FBF70BFF33210720FBF707FF5C
:104A800040F233110720FBF702FF0021A020FBF7C3
:104A9000FEFE75E1FB48808844F2355188427CD1A6
:104AA00030211520FBF7F3FE10219A20FBF7EFFED3
:104AB00020211120FBF7EBFE43F228411020FBF7E9
:104AC000E6FE02211220FBF7E2FE41F2380113203C
:104AD000FBF7DDFE282000F0E2FC12210846FBF780
:104AE000D6FE282000F0DBFC43F220411020FBF72B
:104AF000CEFE43F238011320FBF7C9FE462000F03A
:104B0000CEFC00213020FBF7C2FE40F202413120F2
:104B1000FBF7BDFE40F207313220FBF7B8FE4FF441
:104B200041713320FBF7B3FE04213420FBF7AFFEC5
:104B300040F201413520FBF7AAFE40F20771362012
:104B4000FBF7A5FE40F205313720FBF7A0FE4FF43E
:104B5000C2613820FBF79BFE4FF4C2613920FBF79E
:104B600096FE4FF480710120FBF791FE4FF44071E7
:104B70000220FBF78CFE41F230010320FBF787FE99
:104B800040F608010820FBF782FE08210A20FBF707
:104B90007EFE4FF41C51602000E033E0FBF777FE0F
:104BA00001216120FBF773FE4FF49F719020FBF70A
:104BB0006EFE4FF480719220FBF769FE4FF4807116
:104BC0009320FBF764FE4FF44051A020FBF75FFEFB
:104BD0001021A320FBF75BFE01210720FBF757FE06
:104BE00021210720FBF753FE23210720FBF74FFE6F
:104BF00033210720FBF74BFE40F233110720FBF770
:104C000046FEBDE09F48808841F663118842F8D196
:104C1000E220FBF72DFE1D20FBF72DFE0220FBF707
:104C20002AFE0420FBF727FE642000F014FCE0209D
:104C3000FBF71EFE0120FBF71EFE0A2000F02FFCF2
:104C4000E020FBF715FE0320FBF715FE0C2000F01B
:104C500026FC0120FBF70CFE0A2000F020FCE620D9
:104C6000FBF706FE2F20FBF706FEFF20FBF703FEF7
:104C7000FF20FBF700FEB020FBF7FAFD2020FBF73A
:104C8000FAFD0020FBF7F7FD0320FBF7F4FD40F2EF
:104C90001F30FBF7F0FD0120FBF7EDFD40F2DF10C8
:104CA000FBF7E9FD0020FBF7E6FDB420FBF7E0FD94
:104CB0000420FBF7E0FD40F21F40FBF7DCFD002085
:104CC000FBF7D9FD2E20FBF7D6FD0020FBF7D3FD27
:104CD0000020FBF7D0FD0020FBF7CDFD0020FBF707
:104CE000CAFDB620FBF7C4FD0220FBF7C4FD4FF45C
:104CF0000370FBF7C0FD0020FBF7BDFD1720FBF79D
:104D0000BAFD1520FBF7B7FD0020FBF7B4FD00202E
:104D1000FBF7B1FDF020FBF7ABFD0320FBF7ABFD8C
:104D20002920FBF7A5FDD020FBF7A2FD0020FBF713
:104D3000A2FDBE20FBF79CFD0520FBF79CFDFE209D
:104D4000FBF799FD0120FBF796FD0020FBF793FD93
:104D50000020FBF790FD0020FBF78DFDB820FBF74E
:104D600087FD0320FBF787FD0120FBF784FDBA20B8
:104D7000FBF77EFD0120FBF77EFD6420FCF7DBF9ED
:104D80000020FCF700FA01203F4908604FF6FF7051
:104D9000FCF7E5FB10BD2DE9FC4F05460E46174616
:104DA0009846DDF82C90002001903648808846F621
:104DB0000401884229D133488079012825D1AB46A6
:104DC000354630480088C01B401E86B247462D48F5
:104DD0000088A0EB0B00401E1FFA80F80020294934
:104DE00088712A2048812B20888143463A463146E3
:104DF0002846CDF80090FFF7CEFF012021498871A9
:104E00002B2048812A2088811CE0781B401C80B21E
:104E10000190344614E021462846FBF765FDFBF778
:104E200046FD4FF0000A06E01848A0F800900AF18D
:104E300001001FFA80FA01988245F5DB601C84B2FC
:104E40004445E8DDBDE8FC8F2DE9F84F07460D46E7
:104E500090469946DDF828B0A8EB0700401C1FFAE1
:104E600080FAA9EB0500401C80B2009000241BE0F2
:104E7000281981B23846FBF737FDFBF718FD0026ED
:104E80000EE0000070000020808121420008006CCC
:104E900004FB0A603BF81000F7490880701C86B2DA
:104EA0005645F5DB601C84B200988442E0DBBDE827
:104EB000F88F2DE9FF4F84B081468A460020039089
:104EC00002900698A0EB09050798A0EB0A06CDF81A
:104ED0000490CDF800A0002D01DD012705E00DB9FB
:104EE000002702E04FF0FF376D42002E02DD4FF049
:104EF000010806E016B94FF0000802E04FF0FF3855
:104F00007642B54201DD2C4600E034464FF0000BFE
:104F100021E0009A91B2019A90B2FCF73EF8039812
:104F2000284403900298304402900398A04205DD83
:104F30000398001B03900198384401900298A04206
:104F400005DD0298001B02900098404400900BF190
:104F500001001FFA80FB601C8345DADD08B0BDE864
:104F6000F08FF0B504460D4616461F462B463246D6
:104F700029462046FFF79DFF3B462246294620460C
:104F8000FFF797FF3B46324639462046FFF791FF31
:104F90003B46324629463046FFF78BFFF0BD2DE9F0
:104FA000F04306460F469046002445460320A0EBFA
:104FB00048093CE07A1B91B2321990B2FBF7EDFF41
:104FC0003A1B91B2721990B2FBF7E7FF3A1991B20E
:104FD000721990B2FBF7E1FF7A1991B2321990B2CF
:104FE000FBF7DBFF7A1991B2321B90B2FBF7D5FFCA
:104FF0003A1991B2721B90B2FBF7CFFF7A1B91B2B4
:10500000321B90B2FBF7C9FF3A1B91B2721B90B2F0
:10501000FBF7C3FF641CB9F1000F03DAA000801D89
:10502000814404E0601B80000A3081446D1EAC4264
:10503000C0DDBDE8F0832DE9F84F80460E461746E7
:105040001C46B3462046E31704EB5373DB1021469E
:105050004FEAE47C04EB5C7C4FEAEC0CA4EBCC0C58
:10506000BCF1000F02D04FF0010C01E04FF0000C3A
:105070006344224604EBD27C4FEA6C0C03FB0CF336
:10508000DBB20093A7F12000C7B2002556E00C2C3C
:1050900007D107EB4700794901EB800010F8059034
:1050A00013E0102C05D1764800EB071010F805909E
:1050B0000BE0182C07D107EBC700724901EB800009
:1050C00010F8059001E0BDE8F88F4FF0000A2FE0DE
:1050D00009F0800030B16C48028831464046FBF749
:1050E0006AFF07E00A9828B96848028831464046B6
:1050F000FBF761FF4FEA49604FEA1069701C86B206
:1051000063484088B04200DCDDE7A6EB0B00A0421C
:105110000AD15E4608F101001FFA80F85C48008859
:10512000404500DCCFE706E00AF1010000F0FF0A8D
:10513000BAF1080FCCDB00BF681CC5B200988542ED
:10514000A5DB00BFBFE710B50246012000E05043D9
:105150000B1EA1F10104E1B2F9D110BD2DE9FF4F01
:1051600081B0074691461E460E9D4FF0000A00246E
:1051700039E0301B401EC1B20A20FFF7E4FFB9FB43
:10518000F0F00A21B0FBF1F201FB1208BAF1000FB6
:1051900016D1701EA04213DDB8F1000F0ED1002011
:1051A000AB4605EBDB71491001FB0471009088B23E
:1051B0002B4620220299FFF73EFF12E04FF0010A32
:1051C0000020AB4605EBDB71491001FB0471009038
:1051D00088B208F13001CAB22B460299FFF72BFFC3
:1051E00000BF601CC4B2B442C3DB05B0BDE8F08FA1
:1051F0002DE9FF4F82B0064692461F46DDE90F4873
:105200000020019000255CE0781B401EC1B20A20FE
:10521000FFF799FFBAFBF0F00A21B0FBF1F201FBB6
:1052200012090198B0BB781EA84236DDB9F1000F13
:1052300031D108F0800078B108F00100A34604EBFA
:10524000DB71491001FB0561009088B223463022D2
:105250000399FFF7F0FE0EE008F00100A34604EB0F
:10526000DB71491001FB0561009088B223462022C2
:105270000399FFF7E0FE22E00008006CB466000826
:10528000286B000818710008400000204200002030
:105290007000002001E00120019008F00100A34609
:1052A00004EBDB71491001FB0561009088B209F144
:1052B0003001CAB223460399FFF7BDFE00BF681C48
:1052C000C5B2BD42A0DB06B0BDE8F08F2DE9F847BE
:1052D00004460D4690469946DDE9096704F0FF0A49
:1052E00008EB04001FFA80F809EB05001FFA80F9AB
:1052F00016E0444502DB5446A81985B24D4500DB53
:1053000014E0002000903A78334629462046FFF703
:1053100092FE304606EBD07104EB61018CB27F1C2B
:1053200038787E2802DC38782028E2DA00BFBDE831
:10533000F887000008B50121802000F079FC1E20CC
:10534000ADF8000010208DF8030003208DF8020056
:105350006946334800F0B0F90221314800F05BFAA9
:1053600004212F4800F057FA08212D4800F053FA85
:1053700010212B4800F04FFA08BD2DE9F0410746F7
:105380000D4690461E4617B1012F0AD104E00421B4
:10539000234800F03EFA05E00421214800F03BFAE2
:1053A00000E000BF00BFB8F1000F03D0B8F1010F5B
:1053B0000AD104E010211A4800F02BFA05E0102170
:1053C000174800F028FA00E000BF00BF002420E0EA
:1053D000AC420DD20221124800F01BFA022000F06C
:1053E0005EF802210E4800F016FA022000F057F88D
:1053F000B4420DD208210A4800F00BFA022000F056
:105400004EF80821064800F006FA022000F047F89E
:10541000641CAC42DCD3B442DAD3BDE8F0810000B6
:10542000001C014010B56FF0040000F0B8FE2E48DB
:1054300000682E49B0FBF1F02D490870084600784D
:1054400000EB4001C1EBC0104FF6FF7101EAC00054
:105450002849088010BD0146254A12784A434FF07A
:10546000E0235A6100229A611A46126942F0010251
:105470001A6100BF4FF0E022106900F001021AB17A
:1054800000F48032002AF5D04FF0E022126922F0B9
:1054900001024FF0E0231A6100229A617047014631
:1054A000144A12884A434FF0E0235A6100229A615D
:1054B0001A46126942F001021A6100BF4FF0E02261
:1054C000106900F001021AB100F48032002AF5D010
:1054D0004FF0E022126922F001024FF0E0231A613E
:1054E00000229A61704700001400002000127A0028
:1054F0004400002046000020014600BF704700BF66
:105500002B4A128802F04002002AF9D0C2B2284B7E
:105510001B1D1A80704710B586B00446012144F265
:10552000040000F085FB4FF40070ADF81400032078
:105530008DF8160018208DF8170005A91D4800F0F9
:10554000BBF84FF48060ADF8140004208DF817000C
:1055500005A9184800F0B0F825208DF800000320B8
:105560008DF801008DF8020001208DF803006846D7
:1055700000F0CBFD01940020ADF80800ADF80A0062
:10558000ADF80C00ADF810000C20ADF80E0001A92C
:10559000074800F0F4FB012240F22551044800F0D6
:1055A00086FC0121024800F076FC06B010BD000028
:1055B0000038014000080140094880470948004779
:1055C000FEE7FEE7FEE7FEE7FEE7FEE7FEE7FEE7B3
:1055D000FEE7FEE704480549054A064B7047000010
:1055E0005B04000831010008E0000020E006002014
:1055F000E0020020E002002010B50446CC488442BE
:1056000008D10121042000F02DFB0021042000F02E
:1056100029FB46E0C748844208D10121082000F058
:1056200021FB0021082000F01DFB3AE0C248844223
:1056300008D10121102000F015FB0021102000F0FE
:1056400011FB2EE0BD48844208D10121202000F04A
:1056500009FB0021202000F005FB22E0B84884422D
:1056600008D10121402000F0FDFA0021402000F087
:10567000F9FA16E0B348844208D10121802000F0F5
:10568000F1FA0021802000F0EDFA0AE0AE488442F1
:1056900007D10121801500F0E5FA0021A01500F0E6
:1056A000E1FA10BD10B50121084600F0DBFA002137
:1056B000012000F0D7FA10BD2DE9F0410246002587
:1056C0000026002000230024002791F803C00CF0DE
:1056D0000F0591F803C00CF0100CBCF1000F03D0C3
:1056E00091F802C04CEA050591F800C0BCF1000F2A
:1056F00031D0146800202BE04FF0010C0CFA00F3BD
:10570000B1F800C00CEA03069E4220D183004FF09E
:105710000F0C0CFA03F7BC4305FA03FC4CEA040433
:1057200091F803C0BCF1280F06D14FF0010C0CFA20
:1057300000FCC2F814C00AE091F803C0BCF1480FA5
:1057400005D14FF0010C0CFA00FCC2F810C0401C4F
:105750000828D1D31460B1F800C0BCF1FF0F34DDCC
:10576000546800202EE000F1080C4FF0010808FA00
:105770000CF3B1F800C00CEA03069E4221D183006D
:105780004FF00F0C0CFA03F7BC4305FA03FC4CEA8C
:10579000040491F803C0BCF1280F05D100F1080CF6
:1057A00008FA0CF8C2F8148091F803C0BCF1480F55
:1057B00007D100F1080C4FF0010808FA0CF8C2F804
:1057C0001080401C0828CED35460BDE8F0814FF60D
:1057D000FF710180022181700421C170704702466F
:1057E000002093680B400BB1012000E000207047BF
:1057F0000146886880B2704702460020D3680B409B
:105800000BB1012000E0002070470146C86880B25B
:10581000704701617047416170470AB1016100E062
:1058200041617047C16070474FF480320A43826122
:105830008161826182698269704702460020434B20
:1058400018684FF68073184040EA021008433F4B37
:10585000186070473E49C8617047F0B50A4600239A
:1058600000240021002500F00046B6F1004F02D1CF
:10587000364EF16901E0354E7168C0F3034583B2DD
:1058800000F44016B6F5401F08D121F070612F4E8C
:10589000766826F070662D4F7E6012E000F4801668
:1058A000B6F5801F06D1032606FA05F4A14341F0A0
:1058B000706106E0460D360103FA06F6B14341F089
:1058C000706122B1460D360103FA06F6314300F04D
:1058D0000046B6F1004F02D11C4EF16101E01B4EB3
:1058E0007160F0BD30B500228B071C0F0F2303FA47
:1058F00004F2164B08338C1053F824309343134CA6
:1059000008348D1044F8253023468C1053F8243089
:105910008C07240F00FA04F423430C4C08348D1038
:1059200044F8253030BD0A49DC310860704700007A
:1059300000080140000C014000100140001401402B
:1059400000180140001C01400020014000000140FF
:1059500000002042DF48006840F00100DD49086097
:1059600008464068DC490840DA4948600846006853
:10597000DA490840D74908600846006820F48020CA
:1059800008600846406820F4FE0048604FF41F009D
:1059900088607047CF49096821F48031CD4A116091
:1059A0001146096821F480211160B0F5803F03D0D1
:1059B000B0F5802F0ED106E0C649096841F4803168
:1059C000C44A116007E0C349096841F4A021C14AF3
:1059D000116000E000BF00BF704710B50146002213
:1059E000002300204A11012A02D1BA4C236806E0A4
:1059F000022A02D1B74C236A01E0B64C636A01F077
:105A00001F02012494401C400CB1012000E0002042
:105A100010BD38B5002000900024002500BF3120C3
:105A2000FFF7DBFF05460098401C00900098B0F59A
:105A3000A06F01D0002DF2D03120FFF7CEFF08B1CA
:105A4000012400E00024204638BD01460020A14A80
:105A5000106820F0F80040EAC10010607047A049CB
:105A600008607047024600209A4B586820F47C106A
:105A700042EA01031843974B5860704798490866FB
:105A8000704701460020934A506820F00300084305
:105A9000506070478F48406800F00C007047014626
:105AA00000208C4A506820F0F00008435060704796
:105AB00001460020874A506820F4E06008435060A7
:105AC000704701460020834A506820F4605040EA45
:105AD000C1005060704729B17E4A527A02437D4B23
